:100000000C942A000C943F000C943F000C943F0089
:100010000C943F000C943F000C943F000C943F0064
:100020000C943F000C943F000C943F000C943F0054
:100030000C943F000C943F000C943F000C943F0044
:100040000C943F000C943F000C943F000C943F0034
:100050000C943F0011241FBECFE5D8E0DEBFCDBF1A
:1000600011E0A0E6B0E0E0E0F3E102C005900D92FF
:10007000A836B107D9F70E94F4060C947E090C94B7
:100080000000EF92FF920F931F937B018C0120E001
:1000900030E040E05FE40E94ED0388238CF0C8016B
:1000A000B70120E030E040E05FE40E94B9010E9427
:1000B000AB049B01AC01205030404040504806C08A
:1000C000C801B7010E94AB049B01AC01B901CA0190
:1000D0001F910F91FF90EF900895A0E0B0E0E3E74B
:1000E000F0E00C944709DC012B01FA019C9192305D
:1000F00008F439C1EB018881823008F433C19430AF
:1001000069F4843009F02FC111969C91119789816F
:10011000981709F428C1A0E6B0E025C1843009F49D
:1001200021C18230A9F4923009F01DC19A01AD01BC
:1001300088E0EA010990AE01E90109929E0181502F
:10014000C1F7E201898111969C918923818308C1BD
:10015000923009F407C112962D903C901397EB0151
:100160008A819B811496AD90BD90CD90DC901797BD
:10017000EC80FD800E811F819101281B390BB90194
:1001800037FF04C066277727621B730B6032710547
:100190000CF061C0121613066CF537014801062EEB
:1001A00004C096948794779467940A94D2F721E0D8
:1001B00030E040E050E004C0220F331F441F551FC1
:1001C0006A95D2F721503040404050402E213F21C7
:1001D00040235123211531054105510521F021E02E
:1001E00030E040E050E079018A01E628F72808294C
:1001F00019293CC0232BD1F1260E371E35014601AB
:10020000062E04C096948794779467940A94D2F744
:1002100021E030E040E050E004C0220F331F441FD3
:10022000551F6A95D2F721503040404050402A2156
:100230003B214C215D21211531054105510521F05E
:1002400021E030E040E050E059016A01A628B728DB
:10025000C828D9280BC0821593052CF01C01AA24AC
:10026000BB24650103C0EE24FF24870111969C91F5
:10027000D20111968C91981709F445C0992339F051
:10028000A80197012A193B094C095D0906C0A6017E
:1002900095012E193F09400B510B57FD08C01182E3
:1002A0003382228224833583468357831DC081E0B5
:1002B00081833382228288279927DC01821B930B5A
:1002C000A40BB50B84839583A683B7830DC0220F3F
:1002D000331F441F551F24833583468357838281F0
:1002E000938101979383828324813581468157814D
:1002F000DA01C9010197A109B1098F5F9F4FAF4F83
:10030000BF4328F30BC0918333822282EA0CFB1C8B
:100310000C1D1D1DE482F5820683178383E0808314
:10032000248135814681578157FF1AC0C901AA2708
:1003300097FDA095BA2F81709070A070B0705695FF
:10034000479537952795822B932BA42BB52B848328
:100350009583A683B7838281938101969383828359
:10036000DF0101C0D201CD01CDB7DEB7E2E10C94CF
:100370006309A0E2B0E0EFEBF1E00C94530969836C
:100380007A838B839C832D833E834F835887E9E058
:10039000EE2EF12CEC0EFD1ECE010196B7010E944F
:1003A00023068E010F5E1F4FCE010596B8010E94F5
:1003B00023068A8991E089278A8BC701B801AE019B
:1003C000475E5F4F0E946D000E944E05A096E6E0DA
:1003D0000C946F09A0E2B0E0E0EFF1E00C94530957
:1003E00069837A838B839C832D833E834F835887D5
:1003F000F9E0EF2EF12CEC0EFD1ECE010196B701B7
:100400000E9423068E010F5E1F4FCE010596B80194
:100410000E942306C701B801AE01475E5F4F0E94EC
:100420006D000E944E05A096E6E00C946F09A0E2D4
:10043000B0E0EDE1F2E00C94470969837A838B83A5
:100440009C832D833E834F835887CE010196BE0146
:10045000675F7F4F0E942306CE010596BE016F5E47
:100460007F4F0E9423069985923088F089898230D7
:10047000C8F0943019F4823051F404C0843029F467
:10048000923081F480E690E0C6C0923049F420E0DA
:100490009A858A89981321E02A87CE010996BBC0E4
:1004A000823049F420E09A858A89981321E02A8BCA
:1004B000CE014196B0C02D843E844F8458886D880B
:1004C0007E888F88988CEE24FF248701AA24BB2481
:1004D000650140E050E060E070E0E0E0F0E0C10184
:1004E00081709070892BE9F0E60CF71C081D191D2E
:1004F0009A01AB012A0D3B1D4C1D5D1D80E090E073
:10050000A0E0B0E0E614F7040805190520F481E046
:1005100090E0A0E0B0E0BA01A901480F591F6A1F9E
:100520007B1FAA0CBB1CCC1CDD1C97FE08C081E005
:1005300090E0A0E0B0E0A82AB92ACA2ADB2A3196C6
:10054000E032F10549F0660C771C881C991C569422
:10055000479437942794C3CFFA85EA892B893C893D
:100560008B859C85280F391F2E5F3F4F17C0CA010E
:1005700081709070892B61F016950795F794E79438
:1005800080E090E0A0E0B0E8E82AF92A0A2B1B2BD3
:1005900076956795579547952F5F3F4F77FDE7CF46
:1005A0000CC0440F551F661F771F17FD4160EE0CEE
:1005B000FF1C001F111F21503040403090E05907B0
:1005C00090E0690790E4790760F32B8F3C8FDB01A3
:1005D000CA018F779070A070B07080349105A1052A
:1005E000B10561F447FD0AC0E114F10401051105EC
:1005F00029F0405C5F4F6F4F7F4F40781A8EFE1797
:1006000011F081E08A8F4D8F5E8F6F8F78A383E02A
:10061000898FCE0149960E944E05A096E2E10C9486
:100620006309A8E1B0E0E7E1F3E00C944F096983C6
:100630007A838B839C832D833E834F835887B9E0D5
:10064000EB2EF12CEC0EFD1ECE010196B7010E949F
:1006500023068E010F5E1F4FCE010596B8010E9442
:1006600023062985223008F47EC03989323010F4FF
:10067000B8017CC08A859A8989278A87243011F03D
:10068000223031F4231709F06EC060E670E06EC0CE
:10069000343039F41D861E861F86188A1C861B86F8
:1006A00004C0323021F484E08987B7015FC02B8514
:1006B0003C858B899C89281B390B3C872B87ED84D3
:1006C000FE840F851889AD88BE88CF88D88CEA143F
:1006D000FB040C051D0540F4EE0CFF1C001F111F50
:1006E000215030403C872B8720E030E040E050E054
:1006F00080E090E0A0E0B0E460E070E0EA14FB0489
:100700000C051D0540F0282B392B4A2B5B2BEA18D2
:10071000FB080C091D09B695A79597958795EE0CD2
:10072000FF1C001F111F6F5F7F4F6F31710531F785
:10073000DA01C9018F779070A070B0708034910594
:10074000A105B10561F427FD0AC0E114F10401051A
:10075000110529F0205C3F4F4F4F5F4F20782D87C8
:100760003E874F87588BBE01675F7F4FCB010E944A
:100770004E056896EAE00C946B09A8E1B0E0E3EC62
:10078000F3E00C94530969837A838B839C832D83D4
:100790003E834F83588789E0E82EF12CEC0EFD1E36
:1007A000CE010196B7010E9423068E010F5E1F4FF6
:1007B000CE010596B8010E9423068985823040F05B
:1007C0008989823028F0C701B8010E949B0601C0C8
:1007D0008FEF6896E6E00C946F09A8E1B0E0E3EFD4
:1007E000F3E00C94530969837A838B839C832D8374
:1007F0003E834F83588789E0E82EF12CEC0EFD1ED6
:10080000CE010196B7010E9423068E010F5E1F4F95
:10081000CE010596B8010E9423068985823040F0FA
:100820008989823028F0C701B8010E949B0601C067
:100830008FEF6896E6E00C946F09A8E1B0E0E3E280
:10084000F4E00C94530969837A838B839C832D8312
:100850003E834F83588789E0E82EF12CEC0EFD1E75
:10086000CE010196B7010E9423068E010F5E1F4F35
:10087000CE010596B8010E9423068985823040F09A
:100880008989823028F0C701B8010E949B0601C007
:1008900081E06896E6E00C946F09A8E0B0E0E3E53B
:1008A000F4E00C9450099B01AC0183E08983DA01E8
:1008B000C9018827B7FD83959927AA27BB27B82E9A
:1008C000211531054105510519F482E089833AC0AB
:1008D0008823A9F0203080E0380780E0480780E8CE
:1008E000580729F460E070E080E09FEC30C0EE240F
:1008F000FF248701E21AF30A040B150B02C07901E9
:100900008A018EE1C82ED12CDC82CB82ED82FE8260
:100910000F831887C801B7010E94FF0401971816BA
:10092000190684F4082E04C0EE0CFF1C001F111FD2
:100930000A94D2F7ED82FE820F831887C81AD90A6B
:10094000DC82CB82BA82CE0101960E944E052896A7
:10095000E9E00C946C09ACE0B0E0E1EBF4E00C945D
:10096000570969837A838B839C83CE010196BE01EC
:100970006B5F7F4F0E9423068D81823061F1823050
:1009800050F1843021F48E81882351F12EC02F81C3
:10099000388537FD20C06E812F3131051CF066236C
:1009A000F9F023C08EE190E0821B930B29853A85F4
:1009B0004B855C8504C056954795379527958A9554
:1009C000D2F76623B1F050954095309521953F4F71
:1009D0004F4F5F4F0EC020E030E040E050E009C0D4
:1009E0002FEF3FEF4FEF5FE704C020E030E040E043
:1009F00050E8B901CA012C96E2E00C947309EF9219
:100A0000FF920F931F937B018C0180E0E81680E03A
:100A1000F80681E0080780E0180788F48FEFE816F1
:100A2000F1040105110531F028F088E090E0A0E024
:100A3000B0E017C080E090E0A0E0B0E012C080E03D
:100A4000E81680E0F80680E0080781E0180728F043
:100A500088E190E0A0E0B0E004C080E190E0A0E098
:100A6000B0E020E230E040E050E0281B390B4A0BB8
:100A70005B0B04C016950795F794E7948A95D2F717
:100A8000F701E859FF4F8081281B310941095109BD
:100A9000C9011F910F91FF90EF900895DF92EF929F
:100AA000FF920F931F93FC01E480F580068117816C
:100AB000D1808081823048F480E090E0A0E1B0E015
:100AC000E82AF92A0A2B1B2BA5C0843009F49FC001
:100AD000823021F4EE24FF24870105C0E114F104E3
:100AE0000105110519F4E0E0F0E096C06281738120
:100AF0009FEF623879070CF05BC022E83FEF261BBE
:100B0000370B2A3131052CF020E030E040E050E096
:100B10002AC0B801A701022E04C0769567955795A3
:100B200047950A94D2F781E090E0A0E0B0E004C0DD
:100B3000880F991FAA1FBB1F2A95D2F70197A109F9
:100B4000B1098E219F21A023B1230097A105B105F2
:100B500021F081E090E0A0E0B0E09A01AB01282B09
:100B6000392B4A2B5B2BDA01C9018F779070A0706B
:100B7000B07080349105A105B10539F427FF09C093
:100B8000205C3F4F4F4F5F4F04C0215C3F4F4F4FA2
:100B90005F4FE0E0F0E02030A0E03A07A0E04A0735
:100BA000A0E45A0710F0E1E0F0E079018A0127C0E3
:100BB0006038710564F5FB01E158FF4FD801C701AA
:100BC0008F779070A070B07080349105A105B10549
:100BD00039F4E7FE0DC080E490E0A0E0B0E004C08E
:100BE0008FE390E0A0E0B0E0E80EF91E0A1F1B1FA3
:100BF00017FF05C016950795F794E794319687E09F
:100C000016950795F794E7948A95D1F705C0EE24D9
:100C1000FF248701EFEFF0E06E2F67956627679559
:100C2000902F9F77D794DD24D7948E2F8695492FC8
:100C3000462B582F5D29B701CA011F910F91FF90D4
:100C4000EF90DF900895FC01DB014081518122810A
:100C5000622F6F7770E0221F2227221F9381892F36
:100C6000880F822B282F30E0991F9927991F119602
:100C70009C93119721153105A9F541155105610581
:100C8000710511F482E037C082E89FEF13969C93C0
:100C90008E9312979A01AB0167E0220F331F441F16
:100CA000551F6A95D1F783E08C930DC0220F331F37
:100CB000441F551F12968D919C911397019713967F
:100CC0009C938E931297203080E0380780E048078D
:100CD00080E4580758F314962D933D934D935C93FD
:100CE000179708952F3F310579F441155105610596
:100CF000710519F484E08C93089564FF03C081E0CA
:100D00008C9312C01C9210C02F57304013963C9306
:100D10002E93129783E08C9387E0440F551F661F34
:100D2000771F8A95D1F7706414964D935D936D93F8
:100D30007C93179708951F93DC01FB019C919230DF
:100D400008F447C08081823008F443C0943051F4E5
:100D500011961C91843099F58181682F70E0611B98
:100D600071093FC0843021F0923031F48230B9F102
:100D70008181882389F12DC011961C9111978230B1
:100D8000F1F081811817D9F412962D913C911397A7
:100D9000828193818217930794F028173907BCF05A
:100DA00014968D919D910D90BC91A02D248135813B
:100DB00046815781281739074A075B0718F4112322
:100DC00041F00AC082179307A407B50740F4112326
:100DD00019F061E070E005C06FEF7FEF02C060E0E6
:100DE00070E0CB011F910895DF93CF93CDB7DEB7AD
:100DF000A0970FB6F894DEBF0FBECDBFA4E3B0E05E
:100E0000E4E3F0E0808188608C93A4E3B0E0E4E365
:100E1000F0E0808180618C93A4E3B0E0E4E3F0E053
:100E2000808180628C93A4E3B0E0E4E3F0E0808111
:100E300080648C930E9415090E942E090E94AC08C0
:100E4000E9E5F0E084E08083EFE4F0E01082AAE3DB
:100E5000B0E0EAE3F0E0808181608C93A2E3B0E04F
:100E6000E2E3F0E0808180748C93ABE3B0E0EBE3ED
:100E7000F0E0808181608C9380E090E0A0E2B1E4BA
:100E80008D8B9E8BAF8BB88F6D897E898F89988D66
:100E90002BEA3AEA4AEA5EE30E941702DC01CB0140
:100EA000898B9A8BAB8BBC8B69897A898B899C895E
:100EB00020E030E040E85FE30E941D0488231CF43A
:100EC00081E0888B91C069897A898B899C8920E02F
:100ED00030E04FE753E40E94BD0318160CF07BC0CE
:100EE0006D897E898F89988D20E030E04AE754E44F
:100EF0000E941103DC01CB018C879D87AE87BF87E1
:100F00006C857D858E859F8520E030E04AE753E43F
:100F10000E941702DC01CB0188879987AA87BB87CB
:100F2000688579858A859B8520E030E040E85FE32D
:100F30000E941D0488232CF481E090E09F838E831F
:100F40003FC0688579858A859B8520E03FEF4FE724
:100F500057E40E94BD0318164CF56C857D858E857F
:100F60009F8520E030E040E251E40E941702DC015E
:100F7000CB01BC01CD010E944100DC01CB019F836C
:100F80008E830FC089E190E09D838C838C819D814D
:100F90000197F1F79D838C838E819F8101979F83B9
:100FA0008E838E819F81009769F724C0688579853B
:100FB0008A859B850E944100DC01CB019F838E8343
:100FC0008E819F819B838A838A819B810197F1F720
:100FD0009B838A830FC069897A898B899C890E9447
:100FE0004100DC01CB01888B8889898389818A95BE
:100FF000F1F78983ABE3B0E0EBE3F0E080818E7F33
:101000008C93ECE4F0E011821082EEE4F0E081E4F5
:101010008083E8E5F0E080E28083E8E5F0E084E0CA
:101020008083E8E5F0E08081882F90E08072907006
:101030000097B9F3ECE4F0E011821082EEE4F0E006
:1010400081E08083E8E5F0E080E28083E8E5F0E09D
:1010500084E08083E8E5F0E08081882F90E0807272
:1010600090700097B9F3E6E4F0E080819181CC01C3
:10107000A0E0B0E08D8F9E8FAF8FB8A36D8D7E8D79
:101080008F8D98A10E944D04DC01CB01BC01CD01E4
:1010900029E23CE349EE53E40E941103DC01CB0159
:1010A000898F9A8FAB8FBC8F698D7A8D8B8D9C8D3C
:1010B00020E030E040EF51E40E941D0488231CF43E
:1010C0000E94CF08D2CE0E946608CFCEDF93CF9386
:1010D000CDB7DEB7A5E3B0E0E5E3F0E0808188605E
:1010E0008C93A5E3B0E0E5E3F0E080818F7E8C9304
:1010F000A5E3B0E0E5E3F0E0808180628C93A5E3B6
:10110000B0E0E5E3F0E080818F7B8C93CF91DF91BD
:101110000895DF93CF93CDB7DEB7A5E3B0E0E5E365
:10112000F0E08081877F8C93A5E3B0E0E5E3F0E019
:10113000808180618C93A5E3B0E0E5E3F0E08081FD
:101140008F7D8C93A5E3B0E0E5E3F0E080818064DF
:101150008C93CF91DF910895DF93CF93CDB7DEB716
:10116000A5E3B0E0E5E3F0E08081877F8C93A5E321
:10117000B0E0E5E3F0E080818F7E8C93A5E3B0E002
:10118000E5E3F0E080818F7D8C93A5E3B0E0E5E3BB
:10119000F0E080818F7B8C93CF91DF910895DF9376
:1011A000CF93CDB7DEB7A5E3B0E0E5E3F0E0808113
:1011B000877F8C93A5E3B0E0E5E3F0E080818F7E4C
:1011C0008C93A5E3B0E0E5E3F0E0808180628C934E
:1011D000A5E3B0E0E5E3F0E080818F7B8C93CF91D5
:1011E000DF910895DF93CF93CDB7DEB7A5E3B0E0ED
:1011F000E5E3F0E0808188608C93A5E3B0E0E5E36F
:10120000F0E080818F7E8C93A5E3B0E0E5E3F0E031
:1012100080818F7D8C93A5E3B0E0E5E3F0E08081F1
:101220008F7B8C93CF91DF910895DF93CF93CDB7D0
:10123000DEB7A3E5B0E0E3E5F0E080818A668C9359
:10124000ECE5F0E088EC8083A7E3B0E0E7E3F0E0D2
:10125000808188608C93CF91DF910895DF93CF9345
:10126000CDB7DEB7A5E4B0E0E5E4F0E080818A66C2
:101270008C93E3E4F0E088EC8083A1E3B0E0E1E369
:10128000F0E0808180688C93CF91DF9108952F9258
:101290003F924F925F926F927F928F929F92AF9206
:1012A000BF92CF92DF92EF92FF920F931F93CF9353
:1012B000DF93CDB7DEB7CA1BDB0B0FB6F894DEBFEA
:1012C0000FBECDBF09942A88398848885F846E8410
:1012D0007D848C849B84AA84B984C884DF80EE805A
:1012E000FD800C811B81AA81B981CE0FD11D0FB663
:1012F000F894DEBF0FBECDBFED010895F894FFCF87
:1013000000000000000000000001020203030303CC
:101310000404040404040404050505050505050585
:101320000505050505050505060606060606060665
:10133000060606060606060606060606060606064D
:101340000606060606060606070707070707070735
:10135000070707070707070707070707070707071D
:10136000070707070707070707070707070707070D
:1013700007070707070707070707070707070707FD
:1013800007070707070707070808080808080808E5
:1013900008080808080808080808080808080808CD
:1013A00008080808080808080808080808080808BD
:1013B00008080808080808080808080808080808AD
:1013C000080808080808080808080808080808089D
:1013D000080808080808080808080808080808088D
:1013E000080808080808080808080808080808087D
:1013F000080808080808080808080808080808086D
:081400000808080808080808A4
:00000001FF
